{
  "contractName": "FraudReport",
  "abi": [
    {
      "anonymous": false,
      "inputs": [
        {
          "indexed": false,
          "internalType": "uint256",
          "name": "id",
          "type": "uint256"
        },
        {
          "indexed": false,
          "internalType": "address",
          "name": "reporter",
          "type": "address"
        },
        {
          "indexed": false,
          "internalType": "string",
          "name": "fraudType",
          "type": "string"
        },
        {
          "indexed": false,
          "internalType": "string",
          "name": "description",
          "type": "string"
        },
        {
          "indexed": false,
          "internalType": "uint256",
          "name": "timestamp",
          "type": "uint256"
        }
      ],
      "name": "ReportSubmitted",
      "type": "event"
    },
    {
      "inputs": [
        {
          "internalType": "string",
          "name": "",
          "type": "string"
        },
        {
          "internalType": "string",
          "name": "",
          "type": "string"
        }
      ],
      "name": "fraudReportExists",
      "outputs": [
        {
          "internalType": "bool",
          "name": "",
          "type": "bool"
        }
      ],
      "stateMutability": "view",
      "type": "function",
      "constant": true
    },
    {
      "inputs": [],
      "name": "reportCount",
      "outputs": [
        {
          "internalType": "uint256",
          "name": "",
          "type": "uint256"
        }
      ],
      "stateMutability": "view",
      "type": "function",
      "constant": true
    },
    {
      "inputs": [
        {
          "internalType": "uint256",
          "name": "",
          "type": "uint256"
        }
      ],
      "name": "reports",
      "outputs": [
        {
          "internalType": "uint256",
          "name": "id",
          "type": "uint256"
        },
        {
          "internalType": "address",
          "name": "reporter",
          "type": "address"
        },
        {
          "internalType": "string",
          "name": "fraudType",
          "type": "string"
        },
        {
          "internalType": "string",
          "name": "description",
          "type": "string"
        },
        {
          "internalType": "uint256",
          "name": "timestamp",
          "type": "uint256"
        }
      ],
      "stateMutability": "view",
      "type": "function",
      "constant": true
    },
    {
      "inputs": [
        {
          "internalType": "string",
          "name": "_fraudType",
          "type": "string"
        },
        {
          "internalType": "string",
          "name": "_description",
          "type": "string"
        }
      ],
      "name": "reportExists",
      "outputs": [
        {
          "internalType": "bool",
          "name": "",
          "type": "bool"
        }
      ],
      "stateMutability": "view",
      "type": "function",
      "constant": true
    },
    {
      "inputs": [
        {
          "internalType": "string",
          "name": "_fraudType",
          "type": "string"
        },
        {
          "internalType": "string",
          "name": "_description",
          "type": "string"
        }
      ],
      "name": "submitReport",
      "outputs": [],
      "stateMutability": "nonpayable",
      "type": "function"
    },
    {
      "inputs": [],
      "name": "getReports",
      "outputs": [
        {
          "components": [
            {
              "internalType": "uint256",
              "name": "id",
              "type": "uint256"
            },
            {
              "internalType": "address",
              "name": "reporter",
              "type": "address"
            },
            {
              "internalType": "string",
              "name": "fraudType",
              "type": "string"
            },
            {
              "internalType": "string",
              "name": "description",
              "type": "string"
            },
            {
              "internalType": "uint256",
              "name": "timestamp",
              "type": "uint256"
            }
          ],
          "internalType": "struct FraudReport.Report[]",
          "name": "",
          "type": "tuple[]"
        }
      ],
      "stateMutability": "view",
      "type": "function",
      "constant": true
    }
  ],
  "bytecode": "0x608060405234801561000f575f80fd5b506111578061001d5f395ff3fe608060405234801561000f575f80fd5b5060043610610060575f3560e01c8063185c6f84146100645780639b4dff8514610082578063a3c86daf146100b2578063c942adf7146100d0578063d2acceda14610104578063eca8240c14610120575b5f80fd5b61006c610150565b60405161007991906107c8565b60405180910390f35b61009c6004803603810190610097919061092e565b610156565b6040516100a991906109be565b60405180910390f35b6100ba6101b0565b6040516100c79190610bd4565b60405180910390f35b6100ea60048036038101906100e59190610c1e565b6103f3565b6040516100fb959493929190610ca0565b60405180910390f35b61011e6004803603810190610119919061092e565b61054f565b005b61013a6004803603810190610135919061092e565b61071e565b60405161014791906109be565b60405180910390f35b60025481565b600182805160208101820180518482526020830160208501208183528095505050505050818051602081018201805184825260208301602085012081835280955050505050505f915091509054906101000a900460ff1681565b60605f60025467ffffffffffffffff8111156101cf576101ce61080a565b5b60405190808252806020026020018201604052801561020857816020015b6101f561076e565b8152602001906001900390816101ed5790505b5090505f5b6002548110156103eb575f808281526020019081526020015f206040518060a00160405290815f8201548152602001600182015f9054906101000a900473ffffffffffffffffffffffffffffffffffffffff1673ffffffffffffffffffffffffffffffffffffffff1673ffffffffffffffffffffffffffffffffffffffff1681526020016002820180546102a090610d2c565b80601f01602080910402602001604051908101604052809291908181526020018280546102cc90610d2c565b80156103175780601f106102ee57610100808354040283529160200191610317565b820191905f5260205f20905b8154815290600101906020018083116102fa57829003601f168201915b5050505050815260200160038201805461033090610d2c565b80601f016020809104026020016040519081016040528092919081815260200182805461035c90610d2c565b80156103a75780601f1061037e576101008083540402835291602001916103a7565b820191905f5260205f20905b81548152906001019060200180831161038a57829003601f168201915b505050505081526020016004820154815250508282815181106103cd576103cc610d5c565b5b602002602001018190525080806103e390610db6565b91505061020d565b508091505090565b5f602052805f5260405f205f91509050805f015490806001015f9054906101000a900473ffffffffffffffffffffffffffffffffffffffff169080600201805461043c90610d2c565b80601f016020809104026020016040519081016040528092919081815260200182805461046890610d2c565b80156104b35780601f1061048a576101008083540402835291602001916104b3565b820191905f5260205f20905b81548152906001019060200180831161049657829003601f168201915b5050505050908060030180546104c890610d2c565b80601f01602080910402602001604051908101604052809291908181526020018280546104f490610d2c565b801561053f5780601f106105165761010080835404028352916020019161053f565b820191905f5260205f20905b81548152906001019060200180831161052257829003601f168201915b5050505050908060040154905085565b610559828261071e565b15610599576040517f08c379a000000000000000000000000000000000000000000000000000000000815260040161059090610e47565b60405180910390fd5b6040518060a0016040528060025481526020013373ffffffffffffffffffffffffffffffffffffffff168152602001838152602001828152602001428152505f8060025481526020019081526020015f205f820151815f01556020820151816001015f6101000a81548173ffffffffffffffffffffffffffffffffffffffff021916908373ffffffffffffffffffffffffffffffffffffffff160217905550604082015181600201908161064d9190611002565b5060608201518160030190816106639190611002565b506080820151816004015590505060018083604051610682919061110b565b90815260200160405180910390208260405161069e919061110b565b90815260200160405180910390205f6101000a81548160ff0219169083151502179055507f347b91ba6de112dc74fed92e4b377532b1d43f5e6cfaee95a799f1c49dd1abeb600254338484426040516106fb959493929190610ca0565b60405180910390a160025f81548092919061071590610db6565b91905055505050565b5f60018360405161072f919061110b565b90815260200160405180910390208260405161074b919061110b565b90815260200160405180910390205f9054906101000a900460ff16905092915050565b6040518060a001604052805f81526020015f73ffffffffffffffffffffffffffffffffffffffff16815260200160608152602001606081526020015f81525090565b5f819050919050565b6107c2816107b0565b82525050565b5f6020820190506107db5f8301846107b9565b92915050565b5f604051905090565b5f80fd5b5f80fd5b5f80fd5b5f80fd5b5f601f19601f8301169050919050565b7f4e487b71000000000000000000000000000000000000000000000000000000005f52604160045260245ffd5b610840826107fa565b810181811067ffffffffffffffff8211171561085f5761085e61080a565b5b80604052505050565b5f6108716107e1565b905061087d8282610837565b919050565b5f67ffffffffffffffff82111561089c5761089b61080a565b5b6108a5826107fa565b9050602081019050919050565b828183375f83830152505050565b5f6108d26108cd84610882565b610868565b9050828152602081018484840111156108ee576108ed6107f6565b5b6108f98482856108b2565b509392505050565b5f82601f830112610915576109146107f2565b5b81356109258482602086016108c0565b91505092915050565b5f8060408385031215610944576109436107ea565b5b5f83013567ffffffffffffffff811115610961576109606107ee565b5b61096d85828601610901565b925050602083013567ffffffffffffffff81111561098e5761098d6107ee565b5b61099a85828601610901565b9150509250929050565b5f8115159050919050565b6109b8816109a4565b82525050565b5f6020820190506109d15f8301846109af565b92915050565b5f81519050919050565b5f82825260208201905092915050565b5f819050602082019050919050565b610a09816107b0565b82525050565b5f73ffffffffffffffffffffffffffffffffffffffff82169050919050565b5f610a3882610a0f565b9050919050565b610a4881610a2e565b82525050565b5f81519050919050565b5f82825260208201905092915050565b5f5b83811015610a85578082015181840152602081019050610a6a565b5f8484015250505050565b5f610a9a82610a4e565b610aa48185610a58565b9350610ab4818560208601610a68565b610abd816107fa565b840191505092915050565b5f60a083015f830151610add5f860182610a00565b506020830151610af06020860182610a3f565b5060408301518482036040860152610b088282610a90565b91505060608301518482036060860152610b228282610a90565b9150506080830151610b376080860182610a00565b508091505092915050565b5f610b4d8383610ac8565b905092915050565b5f602082019050919050565b5f610b6b826109d7565b610b7581856109e1565b935083602082028501610b87856109f1565b805f5b85811015610bc25784840389528151610ba38582610b42565b9450610bae83610b55565b925060208a01995050600181019050610b8a565b50829750879550505050505092915050565b5f6020820190508181035f830152610bec8184610b61565b905092915050565b610bfd816107b0565b8114610c07575f80fd5b50565b5f81359050610c1881610bf4565b92915050565b5f60208284031215610c3357610c326107ea565b5b5f610c4084828501610c0a565b91505092915050565b610c5281610a2e565b82525050565b5f82825260208201905092915050565b5f610c7282610a4e565b610c7c8185610c58565b9350610c8c818560208601610a68565b610c95816107fa565b840191505092915050565b5f60a082019050610cb35f8301886107b9565b610cc06020830187610c49565b8181036040830152610cd28186610c68565b90508181036060830152610ce68185610c68565b9050610cf560808301846107b9565b9695505050505050565b7f4e487b71000000000000000000000000000000000000000000000000000000005f52602260045260245ffd5b5f6002820490506001821680610d4357607f821691505b602082108103610d5657610d55610cff565b5b50919050565b7f4e487b71000000000000000000000000000000000000000000000000000000005f52603260045260245ffd5b7f4e487b71000000000000000000000000000000000000000000000000000000005f52601160045260245ffd5b5f610dc0826107b0565b91507fffffffffffffffffffffffffffffffffffffffffffffffffffffffffffffffff8203610df257610df1610d89565b5b600182019050919050565b7f54686973207265706f727420616c7265616479206578697374732100000000005f82015250565b5f610e31601b83610c58565b9150610e3c82610dfd565b602082019050919050565b5f6020820190508181035f830152610e5e81610e25565b9050919050565b5f819050815f5260205f209050919050565b5f6020601f8301049050919050565b5f82821b905092915050565b5f60088302610ec17fffffffffffffffffffffffffffffffffffffffffffffffffffffffffffffffff82610e86565b610ecb8683610e86565b95508019841693508086168417925050509392505050565b5f819050919050565b5f610f06610f01610efc846107b0565b610ee3565b6107b0565b9050919050565b5f819050919050565b610f1f83610eec565b610f33610f2b82610f0d565b848454610e92565b825550505050565b5f90565b610f47610f3b565b610f52818484610f16565b505050565b5b81811015610f7557610f6a5f82610f3f565b600181019050610f58565b5050565b601f821115610fba57610f8b81610e65565b610f9484610e77565b81016020851015610fa3578190505b610fb7610faf85610e77565b830182610f57565b50505b505050565b5f82821c905092915050565b5f610fda5f1984600802610fbf565b1980831691505092915050565b5f610ff28383610fcb565b9150826002028217905092915050565b61100b82610a4e565b67ffffffffffffffff8111156110245761102361080a565b5b61102e8254610d2c565b611039828285610f79565b5f60209050601f83116001811461106a575f8415611058578287015190505b6110628582610fe7565b8655506110c9565b601f19841661107886610e65565b5f5b8281101561109f5784890151825560018201915060208501945060208101905061107a565b868310156110bc57848901516110b8601f891682610fcb565b8355505b6001600288020188555050505b505050505050565b5f81905092915050565b5f6110e582610a4e565b6110ef81856110d1565b93506110ff818560208601610a68565b80840191505092915050565b5f61111682846110db565b91508190509291505056fea264697066735822122020986170b3a953185204ad84da4a825304e27bfcabb3ed3d8523aec6d2d987d464736f6c63430008150033",
  "immutableReferences": {},
  "source": "// SPDX-License-Identifier: MIT\npragma solidity ^0.8.0;\n\ncontract FraudReport {\n    struct Report {\n        uint id;\n        address reporter;\n        string fraudType;\n        string description;\n        uint timestamp;\n    }\n\n    mapping(uint => Report) public reports;\n    mapping(string => mapping(string => bool)) public fraudReportExists;  // This is the mapping you're using\n\n    uint public reportCount;\n\n    event ReportSubmitted(uint id, address reporter, string fraudType, string description, uint timestamp);\n\n    // Function to check if a report with the same fraudType and description already exists\n    function reportExists(string memory _fraudType, string memory _description) public view returns (bool) {\n        return fraudReportExists[_fraudType][_description];\n    }\n\n    // Function to submit a report after validation\n    function submitReport(string memory _fraudType, string memory _description) public {\n        // Check if the report already exists\n        require(!reportExists(_fraudType, _description), \"This report already exists!\");\n\n        // Create the new report\n        reports[reportCount] = Report(reportCount, msg.sender, _fraudType, _description, block.timestamp);\n\n        // Mark the fraud report as existing\n        fraudReportExists[_fraudType][_description] = true;\n\n        // Emit the event for new report\n        emit ReportSubmitted(reportCount, msg.sender, _fraudType, _description, block.timestamp);\n        reportCount++;\n    }\n\n    // Function to get all reports (optional, depending on your needs)\n    function getReports() public view returns (Report[] memory) {\n        Report[] memory allReports = new Report[](reportCount);\n\n        for (uint i = 0; i < reportCount; i++) {\n            allReports[i] = reports[i];\n        }\n\n        return allReports;\n    }\n}\n",
  "sourcePath": "/Users/sumedhmarathe/crowdsourced-fraud-alert/blockchain/contracts/FraudReport.sol",
  "compiler": {
    "name": "solc",
    "version": "0.8.21+commit.d9974bed.Emscripten.clang"
  },
  "schemaVersion": "3.4.16",
  "updatedAt": "2024-11-09T20:48:53.250Z",
  "networkType": "ethereum",
  "devdoc": {
    "kind": "dev",
    "methods": {},
    "version": 1
  },
  "userdoc": {
    "kind": "user",
    "methods": {},
    "version": 1
  }
}