{
  "contractName": "FraudReport",
  "abi": [
    {
      "anonymous": false,
      "inputs": [
        {
          "indexed": false,
          "internalType": "uint256",
          "name": "id",
          "type": "uint256"
        },
        {
          "indexed": false,
          "internalType": "address",
          "name": "reporter",
          "type": "address"
        },
        {
          "indexed": false,
          "internalType": "string",
          "name": "fraudType",
          "type": "string"
        },
        {
          "indexed": false,
          "internalType": "string",
          "name": "description",
          "type": "string"
        },
        {
          "indexed": false,
          "internalType": "uint256",
          "name": "timestamp",
          "type": "uint256"
        }
      ],
      "name": "ReportSubmitted",
      "type": "event"
    },
    {
      "inputs": [],
      "name": "reportCount",
      "outputs": [
        {
          "internalType": "uint256",
          "name": "",
          "type": "uint256"
        }
      ],
      "stateMutability": "view",
      "type": "function",
      "constant": true
    },
    {
      "inputs": [
        {
          "internalType": "uint256",
          "name": "",
          "type": "uint256"
        }
      ],
      "name": "reports",
      "outputs": [
        {
          "internalType": "uint256",
          "name": "id",
          "type": "uint256"
        },
        {
          "internalType": "address",
          "name": "reporter",
          "type": "address"
        },
        {
          "internalType": "string",
          "name": "fraudType",
          "type": "string"
        },
        {
          "internalType": "string",
          "name": "description",
          "type": "string"
        },
        {
          "internalType": "uint256",
          "name": "timestamp",
          "type": "uint256"
        }
      ],
      "stateMutability": "view",
      "type": "function",
      "constant": true
    },
    {
      "inputs": [
        {
          "internalType": "string",
          "name": "_fraudType",
          "type": "string"
        },
        {
          "internalType": "string",
          "name": "_description",
          "type": "string"
        }
      ],
      "name": "submitReport",
      "outputs": [],
      "stateMutability": "nonpayable",
      "type": "function"
    }
  ],
  "bytecode": "0x608060405234801561000f575f80fd5b50610a1b8061001d5f395ff3fe608060405234801561000f575f80fd5b506004361061003f575f3560e01c8063185c6f8414610043578063c942adf714610061578063d2acceda14610095575b5f80fd5b61004b6100b1565b604051610058919061035f565b60405180910390f35b61007b600480360381019061007691906103b3565b6100b7565b60405161008c9594939291906104a7565b60405180910390f35b6100af60048036038101906100aa9190610632565b610213565b005b60015481565b5f602052805f5260405f205f91509050805f015490806001015f9054906101000a900473ffffffffffffffffffffffffffffffffffffffff1690806002018054610100906106d5565b80601f016020809104026020016040519081016040528092919081815260200182805461012c906106d5565b80156101775780601f1061014e57610100808354040283529160200191610177565b820191905f5260205f20905b81548152906001019060200180831161015a57829003601f168201915b50505050509080600301805461018c906106d5565b80601f01602080910402602001604051908101604052809291908181526020018280546101b8906106d5565b80156102035780601f106101da57610100808354040283529160200191610203565b820191905f5260205f20905b8154815290600101906020018083116101e657829003601f168201915b5050505050908060040154905085565b6040518060a0016040528060015481526020013373ffffffffffffffffffffffffffffffffffffffff168152602001838152602001828152602001428152505f8060015481526020019081526020015f205f820151815f01556020820151816001015f6101000a81548173ffffffffffffffffffffffffffffffffffffffff021916908373ffffffffffffffffffffffffffffffffffffffff16021790555060408201518160020190816102c791906108a2565b5060608201518160030190816102dd91906108a2565b50608082015181600401559050507f347b91ba6de112dc74fed92e4b377532b1d43f5e6cfaee95a799f1c49dd1abeb600154338484426040516103249594939291906104a7565b60405180910390a160015f81548092919061033e9061099e565b91905055505050565b5f819050919050565b61035981610347565b82525050565b5f6020820190506103725f830184610350565b92915050565b5f604051905090565b5f80fd5b5f80fd5b61039281610347565b811461039c575f80fd5b50565b5f813590506103ad81610389565b92915050565b5f602082840312156103c8576103c7610381565b5b5f6103d58482850161039f565b91505092915050565b5f73ffffffffffffffffffffffffffffffffffffffff82169050919050565b5f610407826103de565b9050919050565b610417816103fd565b82525050565b5f81519050919050565b5f82825260208201905092915050565b5f5b83811015610454578082015181840152602081019050610439565b5f8484015250505050565b5f601f19601f8301169050919050565b5f6104798261041d565b6104838185610427565b9350610493818560208601610437565b61049c8161045f565b840191505092915050565b5f60a0820190506104ba5f830188610350565b6104c7602083018761040e565b81810360408301526104d9818661046f565b905081810360608301526104ed818561046f565b90506104fc6080830184610350565b9695505050505050565b5f80fd5b5f80fd5b7f4e487b71000000000000000000000000000000000000000000000000000000005f52604160045260245ffd5b6105448261045f565b810181811067ffffffffffffffff821117156105635761056261050e565b5b80604052505050565b5f610575610378565b9050610581828261053b565b919050565b5f67ffffffffffffffff8211156105a05761059f61050e565b5b6105a98261045f565b9050602081019050919050565b828183375f83830152505050565b5f6105d66105d184610586565b61056c565b9050828152602081018484840111156105f2576105f161050a565b5b6105fd8482856105b6565b509392505050565b5f82601f83011261061957610618610506565b5b81356106298482602086016105c4565b91505092915050565b5f806040838503121561064857610647610381565b5b5f83013567ffffffffffffffff81111561066557610664610385565b5b61067185828601610605565b925050602083013567ffffffffffffffff81111561069257610691610385565b5b61069e85828601610605565b9150509250929050565b7f4e487b71000000000000000000000000000000000000000000000000000000005f52602260045260245ffd5b5f60028204905060018216806106ec57607f821691505b6020821081036106ff576106fe6106a8565b5b50919050565b5f819050815f5260205f209050919050565b5f6020601f8301049050919050565b5f82821b905092915050565b5f600883026107617fffffffffffffffffffffffffffffffffffffffffffffffffffffffffffffffff82610726565b61076b8683610726565b95508019841693508086168417925050509392505050565b5f819050919050565b5f6107a66107a161079c84610347565b610783565b610347565b9050919050565b5f819050919050565b6107bf8361078c565b6107d36107cb826107ad565b848454610732565b825550505050565b5f90565b6107e76107db565b6107f28184846107b6565b505050565b5b818110156108155761080a5f826107df565b6001810190506107f8565b5050565b601f82111561085a5761082b81610705565b61083484610717565b81016020851015610843578190505b61085761084f85610717565b8301826107f7565b50505b505050565b5f82821c905092915050565b5f61087a5f198460080261085f565b1980831691505092915050565b5f610892838361086b565b9150826002028217905092915050565b6108ab8261041d565b67ffffffffffffffff8111156108c4576108c361050e565b5b6108ce82546106d5565b6108d9828285610819565b5f60209050601f83116001811461090a575f84156108f8578287015190505b6109028582610887565b865550610969565b601f19841661091886610705565b5f5b8281101561093f5784890151825560018201915060208501945060208101905061091a565b8683101561095c5784890151610958601f89168261086b565b8355505b6001600288020188555050505b505050505050565b7f4e487b71000000000000000000000000000000000000000000000000000000005f52601160045260245ffd5b5f6109a882610347565b91507fffffffffffffffffffffffffffffffffffffffffffffffffffffffffffffffff82036109da576109d9610971565b5b60018201905091905056fea2646970667358221220427608c4857e50c81d56dd7f74ee91e1d6eda1386bc4adb3f24d84f4523b7bb664736f6c63430008150033",
  "immutableReferences": {},
  "source": "// SPDX-License-Identifier: MIT\npragma solidity ^0.8.0;\n\ncontract FraudReport {\n    struct Report {\n        uint id;\n        address reporter;\n        string fraudType;\n        string description;\n        uint timestamp;\n    }\n\n    mapping(uint => Report) public reports;\n    uint public reportCount;\n\n    event ReportSubmitted(uint id, address reporter, string fraudType, string description, uint timestamp);\n\n    function submitReport(string memory _fraudType, string memory _description) public {\n        reports[reportCount] = Report(reportCount, msg.sender, _fraudType, _description, block.timestamp);\n        emit ReportSubmitted(reportCount, msg.sender, _fraudType, _description, block.timestamp);\n        reportCount++;\n    }\n}\n",
  "sourcePath": "/Users/sumedhmarathe/crowdsourced-fraud-alert/blockchain/contracts/FraudReport.sol",
  "compiler": {
    "name": "solc",
    "version": "0.8.21+commit.d9974bed.Emscripten.clang"
  },
  "schemaVersion": "3.4.16",
  "updatedAt": "2024-11-09T07:00:14.693Z",
  "networkType": "ethereum",
  "devdoc": {
    "kind": "dev",
    "methods": {},
    "version": 1
  },
  "userdoc": {
    "kind": "user",
    "methods": {},
    "version": 1
  }
}